:0400000002005E326A
:03000B00020014DC
:0300110002000EDC
:03000E00020018D5
:200014000203173275AF00438920758DFA759850D28E753300C3E53364809483500BE533C4
:200034002438F87600053380EC7531007530007535017536007537039000DF1201E49000F8
:20005400651201E475AF010201590201A02222222275320075344175F01AE532C2D530E7AF
:2000740004D2D5F40484E5F030D502F404FF2534F5348537E020E7FA60F815378535E020F5
:20009400E7FA60F81535E5302438F8A634AE30E5303395E0FF8E828F83A375080375090029
:2000B400120431AE82AF838E3005350536AE32E5323395E0FF8E828F83A375081A750900D8
:2000D400120431AE82AF838E328089753F00753E3075F00AE53FC2D530E704D2D5F404849B
:2000F400E5F030D502F404FF253EF53E8537E020E7FA60F815378535E020E7FA60F8153505
:20011400E5302438F8A63EAE30E5303395E0FF8E828F83A3750803750900120431AE82AFFB
:20013400838E3005350536AE3FE53F3395E0FF8E828F83A375080A750900120431AE82AF4D
:20015400838E3F8089D2997531008536E020E7FA60F815368535E020E7FA60F81535E5318F
:200174002438F98799053505373099FDAE31E5313395E0FF8E828F83A37508037509001249
:0C0194000431AE82AF838E31C29980BE70
:2001A00075AF0075203F75214F75225F75236F7525007524FF75260075890075A882D28C9D
:2001C00075D0009000181201E4858224752A00E5242420F98781D0D0D083D082D0F0D0E06E
:2001E00075AF012275AF00C3E52664809483400775AF017582FF22752700C3E52764809464
:200200008350578527F005F07401800225E0D5F0FBF528E5285525703DE5284225052685F2
:200220008128E5272420F98781E527C40354F8F5297400C082C083C0E0C0E0C0E0C0E0E529
:2002400029C0E07400E5272420F8A68185288175AF0185278222052780A075AF017582FFE8
:200260002275AF00C0E0C0F0C082C083C0D0E5242420F8A681752701C374838527F063F021
:200280008095F04058E5272524F52875F003E528C2D530E704D2D5F40484E5F030D502F435
:2002A00004F5288528F005F07401800225E0D5F0FBF528E52855256020E5272524F52475C8
:2002C000F003E524C2D530E704D2D5F40484E5F030D502F404F52480040527809BE5242468
:2002E00020F98781D0D0D083D082D0F0D0E075AF012275AF008524F005F07401800225E033
:20030000D5F0FBF528E528F4F528E5285225152612026175AF012275AF00C0E0C0F0C082B1
:20032000C083C0D0E5242420F8A68175240375D018E52A7009E52BB40100E433F52B852359
:2003400081752701C374838527F063F08095F04077E52B6008E527252AF52980097403C366
:200360009527252AF52975F003E529C2D530E704D2D5F40484E5F030D502F404F529852969
:20038000F005F07401800225E0D5F0FBF529E5295525602FE52B6008E527252AF52880090E
:2003A0007403C39527252AF52875F003E528C2D530E704D2D5F40484E5F030D502F404F5C8
:2003C000288005052702034485282A852A24E5242420F98781D0D0D083D082D0F0D0E075D9
:0403E000AF01322215
:2003E400E508450960467A01E50825E0F508E509334012F509E5829508E583950940030AE6
:2004040080E6C3E50913F509E50813F508C3E5829508F5F0E58395094005F58385F082C38A
:0D042400E50913F509E50813F508DAE122F2
:20043100C2D5E58330E70DD2D5E4C39582F582E49583F583E50930E70BE4C39508F508E403
:160451009509F5091203E430D50BE4C39582F582E49583F5832225
:00000001FF
