:040000000200523276
:03000B00020014DC
:0300110002000EDC
:03000E00020018D5
:2000140002029232438920758DFA759850D28E753300C3E53364809483500BE5332438F81A
:200034007600053380EC75310075300075350175360075370390005912015F0200D402010E
:200054001B2222222275320075300075344175F01AE532C2D530E704D2D5F40484E5F03043
:20007400D502F404FF2534F5348537E020E7FA60F815378535E020E7FA60F81535E5302465
:2000940038F8A63405350536AE32E5323395E0FF8E828F83A375081A750900120380AE8290
:2000B4008E32AE30E5303395E0FF8E828F83A3750803750900120380AE82AF838E30808B4F
:2000D400D2997531008536E020E7FA60F815368535E020E7FA60F81535E5312438F98799F4
:2000F400053505373099FDAE31E5313395E0FF8E828F83A3750803750900120380AE82AFDD
:07011400838E31C29980BE09
:20011B0075AF0075203F75214F75225F75236F7525007524FF75260075890075A882D28C22
:20013B0075D00090001812015F858224752A00E5242420F98781D0D0D083D082D0F0D0E078
:20015B0075AF012275AF00C3E52664809483400775AF017582FF22752700C3E527648094E9
:20017B008350578527F005F07401800225E0D5F0FBF528E5285525703DE528422505268578
:20019B008128E5272420F98781E527C40354F8F5297400C082C083C0E0C0E0C0E0C0E0E5AF
:2001BB0029C0E07400E5272420F8A68185288175AF0185278222052780A075AF017582FF6E
:2001DB002275AF00C0E0C0F0C082C083C0D0E5242420F8A681752701C374838527F063F0A7
:2001FB008095F04058E5272524F52875F003E528C2D530E704D2D5F40484E5F030D502F4BB
:20021B0004F5288528F005F07401800225E0D5F0FBF528E52855256020E5272524F524754D
:20023B00F003E524C2D530E704D2D5F40484E5F030D502F404F52480040527809BE52424ED
:20025B0020F98781D0D0D083D082D0F0D0E075AF012275AF008524F005F07401800225E0B8
:20027B00D5F0FBF528E528F4F528E528522515261201DC75AF012275AF00C0E0C0F0C082BD
:20029B00C083C0D0E5242420F8A68175240375D018852381752701C374838527F063F0801C
:2002BB0095F04058E527252AF52975F003E529C2D530E704D2D5F40484E5F030D502F4046E
:2002DB00F5298529F005F07401800225E0D5F0FBF529E52955256020E527252AF52875F093
:2002FB0003E528C2D530E704D2D5F40484E5F030D502F404F52880040527809B85282A85E6
:18031B002A24E5242420F98781D0D0D083D082D0F0D0E075AF01322200
:20033300E508450960467A01E50825E0F508E509334012F509E5829508E583950940030A97
:2003530080E6C3E50913F509E50813F508C3E5829508F5F0E58395094005F58385F082C33C
:0D037300E50913F509E50813F508DAE122A4
:20038000C2D5E58330E70DD2D5E4C39582F582E49583F583E50930E70BE4C39508F508E4B5
:1603A0009509F50912033330D50BE4C39582F582E49583F5832288
:00000001FF
