:0300000002003AC1
:03000600020003F2
:03000300020009EF
:20000900758920758DFA759850D28E753300C3E5336480948B500BE5332435F87600053308
:2000290080EC7531007530009000411201300200C40200FD22222222753200753000AE3075
:20004900E5303395E0FF8E828F83A375080B750900120283AE82AF838E34E531B53405123F
:2000690001A180F6E5302435F975F01AE532C2D530E704D2D5F40484E5F030D502F4042495
:2000890041F7AE32E5323395E0FF8E828F83A375081A750900120283AE828E32AE30E5302D
:2000A9003395E0FF8E828F83A375080B750900120283AE82AF838E30020047D299753100B4
:2000C900E531B530051201A180F63099FDE5312435F98799AE31E5313395E0FF8E828F83E1
:1400E900A375080B750900120283AE82AF838E31C29980CCFB
:2000FD0075203F75214F75225F75236F7525007524FF75260075D000900009120130858238
:20011D0024E5242420F98781D0D0D083D082D0F0D0E022C3E5266480948440047582FF2253
:20013D00752700C3E5276480948450548527F005F07401800225E0D5F0FBF528E5285525A6
:20015D00703AE52842250526858128E5272420F98781E527C40354F8F5297400C082C08384
:20017D00C0E0C0E0C0E0C0E0E529C0E07400E5272420F8A68185288185278222052780A384
:20019D007582FF22C0E0C0F0C082C083C0D0E5242420F8A681752701C374848527F063F012
:2001BD008095F04044E5272524F528E528A2E754036004500244FCF5288528F005F0740120
:2001DD00800225E0D5F0FBF528E52855256016E5272524F524E524A2E75403600450024450
:2001FD00FCF5248004052780AFE5242420F98781D0D0D083D082D0F0D0E0228524F005F03B
:19021D007401800225E0D5F0FBF528E528F4F528E528522515260201A16E
:20023600E508450960467A01E50825E0F508E509334012F509E5829508E583950940030A95
:2002560080E6C3E50913F509E50813F508C3E5829508F5F0E58395094005F58385F082C33A
:0D027600E50913F509E50813F508DAE122A2
:20028300C2D5E58330E70DD2D5E4C39582F582E49583F583E50930E70BE4C39508F508E4B3
:1602A3009509F50912023630D50BE4C39582F582E49583F5832284
:00000001FF
