:040000000200723256
:03000B00020014DC
:0300110002000EDC
:03000E00020018D5
:2000140002075C3275AF00438920758DFA759850D28E752700E5272439F876000527C3E525
:20003400276480948740EE753500753400753300D29975370175380775360275AF0190002F
:200054007912087B9001A612087B9002D312087B90040012087B90052D12087B80FE0206B2
:200074005A222222228536E020E7FA60F81536E533540F60030201198500AF8538E020E779
:20009400FA60F815388537E020E7FA60F81537E5342439F87641AE34E5343395E0FF8E8295
:2000B4008F83A3750807750900120A33AE82AF838E3405378501AF4333017582031206A563
:2000D4008500AF8538E020E7FA60F815388537E020E7FA60F81537E5342439F87641AE344D
:2000F400E5343395E0FF8E828F83A3750807750900120A33AE82AF838E3405378501AF532E
:2001140033F00536228500AF8538E020E7FA60F815388537E020E7FA60F81537E53424391D
:20013400F87661AE34E5343395E0FF8E828F83A3750807750900120A33AE82AF838E3405FB
:20015400378501AF4333107582031206A58500AF8538E020E7FA60F815388537E020E7FACE
:2001740060F81537E5342439F87661AE34E5343395E0FF8E828F83A3750807750900120AFD
:2001940033AE82AF838E3405378501AF53330F0536228536E020E7FA60F81536E533540FD7
:2001B40060030202468500AF8538E020E7FA60F815388537E020E7FA60F81537E534243950
:2001D400F87642AE34E5343395E0FF8E828F83A3750807750900120A33AE82AF838E34057A
:2001F400378501AF4333027582021206A58500AF8538E020E7FA60F815388537E020E7FA3D
:2002140060F81537E5342439F87642AE34E5343395E0FF8E828F83A3750807750900120A7B
:2002340033AE82AF838E3405378501AF5333F00536228500AF8538E020E7FA60F815388513
:2002540037E020E7FA60F81537E5342439F87662AE34E5343395E0FF8E828F83A37508079D
:20027400750900120A33AE82AF838E3405378501AF4333207582021206A58500AF8538E0EB
:2002940020E7FA60F815388537E020E7FA60F81537E5342439F87662AE34E5343395E0FF7B
:2002B4008E828F83A3750807750900120A33AE82AF838E3405378501AF53330F0536228508
:2002D40036E020E7FA60F81536E533540F60030203738500AF8538E020E7FA60F8153885FE
:2002F40037E020E7FA60F81537E5342439F87643AE34E5343395E0FF8E828F83A37508071C
:20031400750900120A33AE82AF838E3405378501AF4333037582021206A58500AF8538E067
:2003340020E7FA60F815388537E020E7FA60F81537E5342439F87643AE34E5343395E0FFF9
:200354008E828F83A3750807750900120A33AE82AF838E3405378501AF5333F00536228586
:2003740000AF8538E020E7FA60F815388537E020E7FA60F81537E5342439F87663AE34E528
:20039400343395E0FF8E828F83A3750807750900120A33AE82AF838E3405378501AF43334D
:2003B400307582021206A58500AF8538E020E7FA60F815388537E020E7FA60F81537E53472
:2003D4002439F87663AE34E5343395E0FF8E828F83A3750807750900120A33AE82AF838E33
:2003F4003405378501AF53330F0536228536E020E7FA60F81536E533540F60030204A0850A
:2004140000AF8538E020E7FA60F815388537E020E7FA60F81537E5342439F87644AE34E5A6
:20043400343395E0FF8E828F83A3750807750900120A33AE82AF838E3405378501AF4333AC
:20045400047582031206A58500AF8538E020E7FA60F815388537E020E7FA60F81537E534FC
:200474002439F87644AE34E5343395E0FF8E828F83A3750807750900120A33AE82AF838EB1
:200494003405378501AF5333F00536228500AF8538E020E7FA60F815388537E020E7FA605C
:2004B400F81537E5342439F87664AE34E5343395E0FF8E828F83A3750807750900120A33E4
:2004D400AE82AF838E3405378501AF4333407582031206A58500AF8538E020E7FA60F815C7
:2004F400388537E020E7FA60F81537E5342439F87664AE34E5343395E0FF8E828F83A3754B
:200514000807750900120A33AE82AF838E3405378501AF53330F0536228536E020E7FA6068
:20053400F81536E533540F60030205CD8500AF8538E020E7FA60F815388537E020E7FA603E
:20055400F81537E5342439F87645AE34E5343395E0FF8E828F83A3750807750900120A3362
:20057400AE82AF838E3405378501AF4333057582011206A58500AF8538E020E7FA60F81563
:20059400388537E020E7FA60F81537E5342439F87645AE34E5343395E0FF8E828F83A375C9
:2005B4000807750900120A33AE82AF838E3405378501AF5333F00536228500AF8538E020F2
:2005D400E7FA60F815388537E020E7FA60F81537E5342439F87665AE34E5343395E0FF8EC7
:2005F400828F83A3750807750900120A33AE82AF838E3405378501AF4333507582011206F4
:20061400A58500AF8538E020E7FA60F815388537E020E7FA60F81537E5342439F87665AE72
:2006340034E5343395E0FF8E828F83A3750807750900120A33AE82AF838E3405378501AF07
:0606540053330F053622AE
:20065A0075AF00752500752604752F0175890075A882D28C75D0009006A012087B900018CB
:20067A0012087B85822485242A752CFFE4F52BF52DE5242420F98781D0D0D083D082D0F0B4
:20069A00D0E075AF012212091080FB852FE020E7FA60F8152F75AF00E52425E0FF8FF005BD
:2006BA00F07403800225E0D5F0FBF528E528F4522DE52425E0FF8FF005F0E52C800225E0BC
:2006DA00D5F0FBF528E528422D74042524F5F005F07401800225E0D5F0FBF528E528F4FF33
:2006FA005225E5284225E524142430F8A682052F75AF01E524142430F9E770F7852FE0209F
:20071A00E7FA60F8152F75AF00E52425E0FF8FF005F07403800225E0D5F0FBF528E528F4C1
:20073A00FF522D74042524F5F005F07401800225E0D5F0FBF528E528F4FF5225052F75AFDE
:20075A00012275AF00C0E0C0F0C082C083C0D0E5242420F8A68175240075D000852081E57E
:20077A00242420F98781D0D0D083D082D0F0D0E0052C532C03752701C3E5276480948450D6
:20079A0047C2D575F002E52730E704B2D5F404A430D50AF42401C5F0F43400C5F0F5F0050C
:2007BA00F0E52D3392D2E52D8003A2D213D5F0FAF528532803E528B52C0AE527142430F9AB
:2007DA00E7FF14F7052780B0E52C70408500AF8538E020E7FA60F815388537E020E7FA607D
:2007FA00F81537E5342439F87658E534FE3395E0FF8E828F83A3750807750900120A33AEDD
:20081A0082AF838E3405378501AF052BE52CA2E754016004500244FE6042E535B534028099
:20083A003B8500AF8537E020E7FA60F81537E5352439F98799E535FE3395E0FF8E828F837D
:20085A00A3750807750900120A33AE82AF838E3510990280FB053705388501AF75AF01323A
:20087A00228526E020E7FA60F8152675AF00752700C3E5276480948450758527F005F074C8
:20089A0001800225E0D5F0FBF528E5285525705AE5284225858128E527C454F0FF243FF57B
:2008BA0081E527C40354F8F527E5828583F09009B2C082C083F58285F083C082C0837400CB
:2008DA00C0E0C0E0C0E0C0E0C0277400E527C423541F30E40244E0F527E5272420F8A681F8
:2008FA0085288175AF0085278222052702088B75AF017582FF2275AF00C0E0C0F0C082C0C8
:20091A0083C0D0E5242420F8A681752701C374848527F063F08095F0402EE527252AF5280C
:20093A005328038528F005F07401800225E0D5F0FBF528E5285525600BE527252AF52A53F5
:20095A002A038004052780C5752701C3E52764809484502B74042527F5F005F074018002E3
:20097A0025E0D5F0FBF528E52854F0600EE527142430F9E7700585272A8004052780CC859C
:20099A002A24E5242420F98781D0D0D083D082D0F0D0E075AF01322275AF008524F005F0C1
:2009BA007401800225E0D5F0FBF528E528F4FF5225052675AF0180FEC3E52C6480948240F1
:0C09DA0006E52B04FF8002AF2B8F822269
:2009E600E508450960467A01E50825E0F508E509334012F509E5829508E583950940030ADE
:200A060080E6C3E50913F509E50813F508C3E5829508F5F0E58395094005F58385F082C382
:0D0A2600E50913F509E50813F508DAE122EA
:200A3300C2D5E58330E70DD2D5E4C39582F582E49583F583E50930E70BE4C39508F508E4FB
:160A53009509F5091209E630D50BE4C39582F582E49583F5832215
:00000001FF
